{
  "_format": "hh-sol-artifact-1",
  "contractName": "Staker",
  "sourceName": "contracts/Staker.sol",
  "abi": [
    {
      "inputs": [
        {
          "internalType": "contract RewardToken",
          "name": "_tokenAddress",
          "type": "address"
        }
      ],
      "stateMutability": "nonpayable",
      "type": "constructor"
    },
    {
      "anonymous": false,
      "inputs": [
        {
          "indexed": false,
          "internalType": "uint256",
          "name": "_rewardRate",
          "type": "uint256"
        }
      ],
      "name": "ChangedRewardRate",
      "type": "event"
    },
    {
      "anonymous": false,
      "inputs": [
        {
          "indexed": true,
          "internalType": "address",
          "name": "user",
          "type": "address"
        },
        {
          "indexed": false,
          "internalType": "bool",
          "name": "applyFeeStatus",
          "type": "bool"
        }
      ],
      "name": "ChangedWithdrawFeeApplyStatus",
      "type": "event"
    },
    {
      "anonymous": false,
      "inputs": [
        {
          "indexed": true,
          "internalType": "address",
          "name": "user",
          "type": "address"
        },
        {
          "indexed": false,
          "internalType": "uint256",
          "name": "amount",
          "type": "uint256"
        }
      ],
      "name": "ClaimFinished",
      "type": "event"
    },
    {
      "anonymous": false,
      "inputs": [
        {
          "indexed": true,
          "internalType": "address",
          "name": "user",
          "type": "address"
        },
        {
          "indexed": false,
          "internalType": "uint256",
          "name": "amount",
          "type": "uint256"
        }
      ],
      "name": "DepositeFinished",
      "type": "event"
    },
    {
      "anonymous": false,
      "inputs": [
        {
          "indexed": true,
          "internalType": "address",
          "name": "previousOwner",
          "type": "address"
        },
        {
          "indexed": true,
          "internalType": "address",
          "name": "newOwner",
          "type": "address"
        }
      ],
      "name": "OwnershipTransferred",
      "type": "event"
    },
    {
      "anonymous": false,
      "inputs": [
        {
          "indexed": true,
          "internalType": "address",
          "name": "user",
          "type": "address"
        },
        {
          "indexed": false,
          "internalType": "uint256",
          "name": "amount",
          "type": "uint256"
        }
      ],
      "name": "WithdrawFinished",
      "type": "event"
    },
    {
      "inputs": [],
      "name": "claimReward",
      "outputs": [
        {
          "internalType": "bool",
          "name": "",
          "type": "bool"
        }
      ],
      "stateMutability": "nonpayable",
      "type": "function"
    },
    {
      "inputs": [
        {
          "internalType": "uint256",
          "name": "_amount",
          "type": "uint256"
        }
      ],
      "name": "deposite",
      "outputs": [
        {
          "internalType": "bool",
          "name": "",
          "type": "bool"
        }
      ],
      "stateMutability": "nonpayable",
      "type": "function"
    },
    {
      "inputs": [
        {
          "internalType": "address",
          "name": "_stakeholder",
          "type": "address"
        }
      ],
      "name": "depositeOf",
      "outputs": [
        {
          "internalType": "uint256",
          "name": "",
          "type": "uint256"
        }
      ],
      "stateMutability": "view",
      "type": "function"
    },
    {
      "inputs": [
        {
          "internalType": "address",
          "name": "_stakeholder",
          "type": "address"
        }
      ],
      "name": "getLastTime",
      "outputs": [
        {
          "internalType": "uint256",
          "name": "",
          "type": "uint256"
        }
      ],
      "stateMutability": "view",
      "type": "function"
    },
    {
      "inputs": [],
      "name": "getRewardRate",
      "outputs": [
        {
          "internalType": "uint256",
          "name": "",
          "type": "uint256"
        }
      ],
      "stateMutability": "view",
      "type": "function"
    },
    {
      "inputs": [],
      "name": "getTotalDepositedAmount",
      "outputs": [
        {
          "internalType": "uint256",
          "name": "",
          "type": "uint256"
        }
      ],
      "stateMutability": "view",
      "type": "function"
    },
    {
      "inputs": [
        {
          "internalType": "address",
          "name": "_stakeholder",
          "type": "address"
        }
      ],
      "name": "getWithdrawFeeApplyStatus",
      "outputs": [
        {
          "internalType": "bool",
          "name": "",
          "type": "bool"
        }
      ],
      "stateMutability": "view",
      "type": "function"
    },
    {
      "inputs": [],
      "name": "owner",
      "outputs": [
        {
          "internalType": "address",
          "name": "",
          "type": "address"
        }
      ],
      "stateMutability": "view",
      "type": "function"
    },
    {
      "inputs": [],
      "name": "renounceOwnership",
      "outputs": [],
      "stateMutability": "nonpayable",
      "type": "function"
    },
    {
      "inputs": [
        {
          "internalType": "address",
          "name": "_stakeholder",
          "type": "address"
        }
      ],
      "name": "rewardOf",
      "outputs": [
        {
          "internalType": "uint256",
          "name": "",
          "type": "uint256"
        }
      ],
      "stateMutability": "view",
      "type": "function"
    },
    {
      "inputs": [],
      "name": "rewardToken",
      "outputs": [
        {
          "internalType": "contract RewardToken",
          "name": "",
          "type": "address"
        }
      ],
      "stateMutability": "view",
      "type": "function"
    },
    {
      "inputs": [
        {
          "internalType": "address",
          "name": "_stakeholder",
          "type": "address"
        },
        {
          "internalType": "uint256",
          "name": "_lastTime",
          "type": "uint256"
        }
      ],
      "name": "setLastTime",
      "outputs": [
        {
          "internalType": "bool",
          "name": "",
          "type": "bool"
        }
      ],
      "stateMutability": "nonpayable",
      "type": "function"
    },
    {
      "inputs": [
        {
          "internalType": "uint256",
          "name": "_rewardRate",
          "type": "uint256"
        }
      ],
      "name": "setRewardRate",
      "outputs": [
        {
          "internalType": "bool",
          "name": "",
          "type": "bool"
        }
      ],
      "stateMutability": "nonpayable",
      "type": "function"
    },
    {
      "inputs": [
        {
          "internalType": "address",
          "name": "_stakeholder",
          "type": "address"
        },
        {
          "internalType": "bool",
          "name": "_applyFee",
          "type": "bool"
        }
      ],
      "name": "setWithdrawFeeApplyStatus",
      "outputs": [
        {
          "internalType": "bool",
          "name": "",
          "type": "bool"
        }
      ],
      "stateMutability": "nonpayable",
      "type": "function"
    },
    {
      "inputs": [
        {
          "internalType": "address",
          "name": "",
          "type": "address"
        }
      ],
      "name": "stakeLists",
      "outputs": [
        {
          "internalType": "uint256",
          "name": "stakesAmount",
          "type": "uint256"
        },
        {
          "internalType": "uint256",
          "name": "rewardsAmount",
          "type": "uint256"
        },
        {
          "internalType": "uint256",
          "name": "lastUpdateTime",
          "type": "uint256"
        }
      ],
      "stateMutability": "view",
      "type": "function"
    },
    {
      "inputs": [
        {
          "internalType": "address",
          "name": "newOwner",
          "type": "address"
        }
      ],
      "name": "transferOwnership",
      "outputs": [],
      "stateMutability": "nonpayable",
      "type": "function"
    },
    {
      "inputs": [
        {
          "internalType": "address",
          "name": "_account",
          "type": "address"
        }
      ],
      "name": "updateReward",
      "outputs": [
        {
          "internalType": "uint256",
          "name": "",
          "type": "uint256"
        }
      ],
      "stateMutability": "view",
      "type": "function"
    },
    {
      "inputs": [
        {
          "internalType": "uint256",
          "name": "_amount",
          "type": "uint256"
        }
      ],
      "name": "withdraw",
      "outputs": [
        {
          "internalType": "bool",
          "name": "",
          "type": "bool"
        }
      ],
      "stateMutability": "nonpayable",
      "type": "function"
    },
    {
      "inputs": [
        {
          "internalType": "address",
          "name": "",
          "type": "address"
        }
      ],
      "name": "withdrawFeeApplyStatus",
      "outputs": [
        {
          "internalType": "bool",
          "name": "",
          "type": "bool"
        }
      ],
      "stateMutability": "view",
      "type": "function"
    }
  ],
  "bytecode": "0x60806040526127106002553480156200001757600080fd5b5060405162001ed738038062001ed783398181016040528101906200003d919062000188565b6200005d62000051620000a560201b60201c565b620000ad60201b60201c565b80600160006101000a81548173ffffffffffffffffffffffffffffffffffffffff021916908373ffffffffffffffffffffffffffffffffffffffff1602179055505062000216565b600033905090565b60008060009054906101000a900473ffffffffffffffffffffffffffffffffffffffff169050816000806101000a81548173ffffffffffffffffffffffffffffffffffffffff021916908373ffffffffffffffffffffffffffffffffffffffff1602179055508173ffffffffffffffffffffffffffffffffffffffff168173ffffffffffffffffffffffffffffffffffffffff167f8be0079c531659141344cd1fd0a4f28419497f9722a3daafe3b4186f6b6457e060405160405180910390a35050565b6000815190506200018281620001fc565b92915050565b6000602082840312156200019b57600080fd5b6000620001ab8482850162000171565b91505092915050565b6000620001c182620001dc565b9050919050565b6000620001d582620001b4565b9050919050565b600073ffffffffffffffffffffffffffffffffffffffff82169050919050565b6200020781620001c8565b81146200021357600080fd5b50565b611cb180620002266000396000f3fe608060405234801561001057600080fd5b50600436106101215760003560e01c80638da5cb5b116100ad578063db7ac39911610071578063db7ac3991461036c578063df7632821461038a578063ee7c04e4146103ba578063f2fde38b146103ea578063f7c618c11461040657610121565b80638da5cb5b146102a05780639e447fc6146102be5780639e8c7d7f146102ee578063b88a802f1461031e578063d54281e51461033c57610121565b80633104562b116100f45780633104562b146101e857806360b47b3014610218578063632447c914610248578063715018a6146102785780637e1a37861461028257610121565b8063168f83bb146101265780631d62ebd9146101585780632060e426146101885780632e1a7d4d146101b8575b600080fd5b610140600480360381019061013b91906113a7565b610424565b60405161014f939291906117e3565b60405180910390f35b610172600480360381019061016d91906113a7565b61044e565b60405161017f91906117c8565b60405180910390f35b6101a2600480360381019061019d91906113a7565b61049f565b6040516101af9190611692565b60405180910390f35b6101d260048036038101906101cd9190611471565b6104f5565b6040516101df9190611692565b60405180910390f35b61020260048036038101906101fd9190611471565b610761565b60405161020f9190611692565b60405180910390f35b610232600480360381019061022d919061140c565b610a2e565b60405161023f9190611692565b60405180910390f35b610262600480360381019061025d91906113a7565b610a86565b60405161026f91906117c8565b60405180910390f35b610280610b80565b005b61028a610c08565b60405161029791906117c8565b60405180910390f35b6102a8610c12565b6040516102b59190611617565b60405180910390f35b6102d860048036038101906102d39190611471565b610c3b565b6040516102e59190611692565b60405180910390f35b610308600480360381019061030391906113a7565b610d43565b60405161031591906117c8565b60405180910390f35b610326610d94565b6040516103339190611692565b60405180910390f35b610356600480360381019061035191906113a7565b610f54565b6040516103639190611692565b60405180910390f35b610374610f74565b60405161038191906117c8565b60405180910390f35b6103a4600480360381019061039f91906113a7565b610f7e565b6040516103b191906117c8565b60405180910390f35b6103d460048036038101906103cf91906113d0565b610fcf565b6040516103e19190611692565b60405180910390f35b61040460048036038101906103ff91906113a7565b6110fc565b005b61040e6111f4565b60405161041b91906116ad565b60405180910390f35b60046020528060005260406000206000915090508060000154908060010154908060020154905083565b600080600460008473ffffffffffffffffffffffffffffffffffffffff1673ffffffffffffffffffffffffffffffffffffffff16815260200190815260200160002090508060010154915050919050565b6000600560008373ffffffffffffffffffffffffffffffffffffffff1673ffffffffffffffffffffffffffffffffffffffff16815260200190815260200160002060009054906101000a900460ff169050919050565b600080600460003373ffffffffffffffffffffffffffffffffffffffff1673ffffffffffffffffffffffffffffffffffffffff1681526020019081526020016000209050600081600001541415610581576040517f08c379a000000000000000000000000000000000000000000000000000000000815260040161057890611748565b60405180910390fd5b600083116105c4576040517f08c379a00000000000000000000000000000000000000000000000000000000081526004016105bb906116e8565b60405180910390fd5b806000015483111561060b576040517f08c379a0000000000000000000000000000000000000000000000000000000008152600401610602906116c8565b60405180910390fd5b600160009054906101000a900473ffffffffffffffffffffffffffffffffffffffff1673ffffffffffffffffffffffffffffffffffffffff1663a9059cbb33856040518363ffffffff1660e01b8152600401610668929190611669565b602060405180830381600087803b15801561068257600080fd5b505af1158015610696573d6000803e3d6000fd5b505050506040513d601f19601f820116820180604052508101906106ba9190611448565b506106c433610a86565b816001018190555082600360008282546106de919061190c565b92505081905550828160000160008282546106f9919061190c565b925050819055504281600201819055503373ffffffffffffffffffffffffffffffffffffffff167fc30674dd0fb78fbd6f76bcf2213e36dc143fad985b255420b31444f9f29f6d5c8460405161074f91906117c8565b60405180910390a26001915050919050565b600081600160009054906101000a900473ffffffffffffffffffffffffffffffffffffffff1673ffffffffffffffffffffffffffffffffffffffff166370a08231336040518263ffffffff1660e01b81526004016107bf9190611617565b60206040518083038186803b1580156107d757600080fd5b505afa1580156107eb573d6000803e3d6000fd5b505050506040513d601f19601f8201168201806040525081019061080f919061149a565b1015610850576040517f08c379a000000000000000000000000000000000000000000000000000000000815260040161084790611728565b60405180910390fd5b60008211610893576040517f08c379a000000000000000000000000000000000000000000000000000000000815260040161088a906116e8565b60405180910390fd5b600160009054906101000a900473ffffffffffffffffffffffffffffffffffffffff1673ffffffffffffffffffffffffffffffffffffffff166323b872dd3330856040518463ffffffff1660e01b81526004016108f293929190611632565b602060405180830381600087803b15801561090c57600080fd5b505af1158015610920573d6000803e3d6000fd5b505050506040513d601f19601f820116820180604052508101906109449190611448565b506000600460003373ffffffffffffffffffffffffffffffffffffffff1673ffffffffffffffffffffffffffffffffffffffff168152602001908152602001600020905061099133610a86565b816001018190555082600360008282546109ab919061182b565b92505081905550828160000160008282546109c6919061182b565b925050819055504281600201819055503373ffffffffffffffffffffffffffffffffffffffff167f37f8c1de94555fd9a499954c03f50e76f04761669a3535d34f446039f7c14bde84604051610a1c91906117c8565b60405180910390a26001915050919050565b600080600460008573ffffffffffffffffffffffffffffffffffffffff1673ffffffffffffffffffffffffffffffffffffffff1681526020019081526020016000209050828160020181905550600191505092915050565b600080600460008473ffffffffffffffffffffffffffffffffffffffff1673ffffffffffffffffffffffffffffffffffffffff1681526020019081526020016000209050600081600001541415610ae4578060010154915050610b7b565b610b77610b64601e610b5662015180610b48600354610b3a8860000154610b2c600254610b1e8c600201544261121a90919063ffffffff16565b61123090919063ffffffff16565b61123090919063ffffffff16565b61124690919063ffffffff16565b61124690919063ffffffff16565b61124690919063ffffffff16565b826001015461125c90919063ffffffff16565b9150505b919050565b610b88611272565b73ffffffffffffffffffffffffffffffffffffffff16610ba6610c12565b73ffffffffffffffffffffffffffffffffffffffff1614610bfc576040517f08c379a0000000000000000000000000000000000000000000000000000000008152600401610bf390611788565b60405180910390fd5b610c06600061127a565b565b6000600254905090565b60008060009054906101000a900473ffffffffffffffffffffffffffffffffffffffff16905090565b6000610c45611272565b73ffffffffffffffffffffffffffffffffffffffff16610c63610c12565b73ffffffffffffffffffffffffffffffffffffffff1614610cb9576040517f08c379a0000000000000000000000000000000000000000000000000000000008152600401610cb090611788565b60405180910390fd5b60008211610cfc576040517f08c379a0000000000000000000000000000000000000000000000000000000008152600401610cf390611768565b60405180910390fd5b816002819055507f795c791fb6e51ddd4902b53633545225e56aa84cf12f492ce98b98aeb92a3e2282604051610d3291906117c8565b60405180910390a160019050919050565b600080600460008473ffffffffffffffffffffffffffffffffffffffff1673ffffffffffffffffffffffffffffffffffffffff16815260200190815260200160002090508060020154915050919050565b600080600460003373ffffffffffffffffffffffffffffffffffffffff1673ffffffffffffffffffffffffffffffffffffffff1681526020019081526020016000209050610de133610a86565b8160010181905550600081600101541415610e31576040517f08c379a0000000000000000000000000000000000000000000000000000000008152600401610e28906117a8565b60405180910390fd5b600081600101549050600160009054906101000a900473ffffffffffffffffffffffffffffffffffffffff1673ffffffffffffffffffffffffffffffffffffffff1663a9059cbb33836040518363ffffffff1660e01b8152600401610e97929190611669565b602060405180830381600087803b158015610eb157600080fd5b505af1158015610ec5573d6000803e3d6000fd5b505050506040513d601f19601f82011682018060405250810190610ee99190611448565b50600082600101819055504282600201819055503373ffffffffffffffffffffffffffffffffffffffff167f08a015f214a42e58cca7fdb807f53a067701d355835cb4ae6c09da87b36f73ee82604051610f4391906117c8565b60405180910390a260019250505090565b60056020528060005260406000206000915054906101000a900460ff1681565b6000600354905090565b600080600460008473ffffffffffffffffffffffffffffffffffffffff1673ffffffffffffffffffffffffffffffffffffffff16815260200190815260200160002090508060000154915050919050565b6000610fd9611272565b73ffffffffffffffffffffffffffffffffffffffff16610ff7610c12565b73ffffffffffffffffffffffffffffffffffffffff161461104d576040517f08c379a000000000000000000000000000000000000000000000000000000000815260040161104490611788565b60405180910390fd5b81600560008573ffffffffffffffffffffffffffffffffffffffff1673ffffffffffffffffffffffffffffffffffffffff16815260200190815260200160002060006101000a81548160ff0219169083151502179055508273ffffffffffffffffffffffffffffffffffffffff167f4b279bd05b5d1eb09a7de624717c08c296cfd450b0559ddac65cc5ff3ba2f357836040516110ea9190611692565b60405180910390a26001905092915050565b611104611272565b73ffffffffffffffffffffffffffffffffffffffff16611122610c12565b73ffffffffffffffffffffffffffffffffffffffff1614611178576040517f08c379a000000000000000000000000000000000000000000000000000000000815260040161116f90611788565b60405180910390fd5b600073ffffffffffffffffffffffffffffffffffffffff168173ffffffffffffffffffffffffffffffffffffffff1614156111e8576040517f08c379a00000000000000000000000000000000000000000000000000000000081526004016111df90611708565b60405180910390fd5b6111f18161127a565b50565b600160009054906101000a900473ffffffffffffffffffffffffffffffffffffffff1681565b60008183611228919061190c565b905092915050565b6000818361123e91906118b2565b905092915050565b600081836112549190611881565b905092915050565b6000818361126a919061182b565b905092915050565b600033905090565b60008060009054906101000a900473ffffffffffffffffffffffffffffffffffffffff169050816000806101000a81548173ffffffffffffffffffffffffffffffffffffffff021916908373ffffffffffffffffffffffffffffffffffffffff1602179055508173ffffffffffffffffffffffffffffffffffffffff168173ffffffffffffffffffffffffffffffffffffffff167f8be0079c531659141344cd1fd0a4f28419497f9722a3daafe3b4186f6b6457e060405160405180910390a35050565b60008135905061134d81611c36565b92915050565b60008135905061136281611c4d565b92915050565b60008151905061137781611c4d565b92915050565b60008135905061138c81611c64565b92915050565b6000815190506113a181611c64565b92915050565b6000602082840312156113b957600080fd5b60006113c78482850161133e565b91505092915050565b600080604083850312156113e357600080fd5b60006113f18582860161133e565b925050602061140285828601611353565b9150509250929050565b6000806040838503121561141f57600080fd5b600061142d8582860161133e565b925050602061143e8582860161137d565b9150509250929050565b60006020828403121561145a57600080fd5b600061146884828501611368565b91505092915050565b60006020828403121561148357600080fd5b60006114918482850161137d565b91505092915050565b6000602082840312156114ac57600080fd5b60006114ba84828501611392565b91505092915050565b6114cc81611940565b82525050565b6114db81611952565b82525050565b6114ea81611988565b82525050565b60006114fd60428361181a565b915061150882611a0a565b606082019050919050565b600061152060348361181a565b915061152b82611a7f565b604082019050919050565b600061154360268361181a565b915061154e82611ace565b604082019050919050565b600061156660228361181a565b915061157182611b1d565b604082019050919050565b600061158960088361181a565b915061159482611b6c565b602082019050919050565b60006115ac60278361181a565b91506115b782611b95565b604082019050919050565b60006115cf60208361181a565b91506115da82611be4565b602082019050919050565b60006115f2600a8361181a565b91506115fd82611c0d565b602082019050919050565b6116118161197e565b82525050565b600060208201905061162c60008301846114c3565b92915050565b600060608201905061164760008301866114c3565b61165460208301856114c3565b6116616040830184611608565b949350505050565b600060408201905061167e60008301856114c3565b61168b6020830184611608565b9392505050565b60006020820190506116a760008301846114d2565b92915050565b60006020820190506116c260008301846114e1565b92915050565b600060208201905081810360008301526116e1816114f0565b9050919050565b6000602082019050818103600083015261170181611513565b9050919050565b6000602082019050818103600083015261172181611536565b9050919050565b6000602082019050818103600083015261174181611559565b9050919050565b600060208201905081810360008301526117618161157c565b9050919050565b600060208201905081810360008301526117818161159f565b9050919050565b600060208201905081810360008301526117a1816115c2565b9050919050565b600060208201905081810360008301526117c1816115e5565b9050919050565b60006020820190506117dd6000830184611608565b92915050565b60006060820190506117f86000830186611608565b6118056020830185611608565b6118126040830184611608565b949350505050565b600082825260208201905092915050565b60006118368261197e565b91506118418361197e565b9250827fffffffffffffffffffffffffffffffffffffffffffffffffffffffffffffffff03821115611876576118756119ac565b5b828201905092915050565b600061188c8261197e565b91506118978361197e565b9250826118a7576118a66119db565b5b828204905092915050565b60006118bd8261197e565b91506118c88361197e565b9250817fffffffffffffffffffffffffffffffffffffffffffffffffffffffffffffffff0483118215151615611901576119006119ac565b5b828202905092915050565b60006119178261197e565b91506119228361197e565b925082821015611935576119346119ac565b5b828203905092915050565b600061194b8261195e565b9050919050565b60008115159050919050565b600073ffffffffffffffffffffffffffffffffffffffff82169050919050565b6000819050919050565b60006119938261199a565b9050919050565b60006119a58261195e565b9050919050565b7f4e487b7100000000000000000000000000000000000000000000000000000000600052601160045260246000fd5b7f4e487b7100000000000000000000000000000000000000000000000000000000600052601260045260246000fd5b7f54686520616d6f756e7420746f206265207472616e736665727265642073686f60008201527f756c6420626520657175616c206f72206c657373207468616e204465706f736960208201527f7465000000000000000000000000000000000000000000000000000000000000604082015250565b7f54686520616d6f756e7420746f206265207472616e736665727265642073686f60008201527f756c64206265206c6172676572207468616e2030000000000000000000000000602082015250565b7f4f776e61626c653a206e6577206f776e657220697320746865207a65726f206160008201527f6464726573730000000000000000000000000000000000000000000000000000602082015250565b7f506c65617365206465706f73697465206d6f726520696e20796f75722063617260008201527f6421000000000000000000000000000000000000000000000000000000000000602082015250565b7f4e6f207374616b65000000000000000000000000000000000000000000000000600082015250565b7f5468652072657761726420726174652073686f756c64206265206c617267657260008201527f207468616e203000000000000000000000000000000000000000000000000000602082015250565b7f4f776e61626c653a2063616c6c6572206973206e6f7420746865206f776e6572600082015250565b7f4e6f207265776172647300000000000000000000000000000000000000000000600082015250565b611c3f81611940565b8114611c4a57600080fd5b50565b611c5681611952565b8114611c6157600080fd5b50565b611c6d8161197e565b8114611c7857600080fd5b5056fea264697066735822122054e8908271808398ecb3208e17ab3b661c57c2d3c040034caa334d4a7539bb4a64736f6c63430008040033",
  "linkReferences": {},
  "deployedLinkReferences": {}
}