{
  "_format": "hh-sol-artifact-1",
  "contractName": "StakingRewards",
  "sourceName": "contracts/StakingRewards.sol",
  "abi": [
    {
      "inputs": [
        {
          "internalType": "contract BaseERC20",
          "name": "_tokenAddress",
          "type": "address"
        }
      ],
      "stateMutability": "nonpayable",
      "type": "constructor"
    },
    {
      "anonymous": false,
      "inputs": [
        {
          "indexed": true,
          "internalType": "address",
          "name": "user",
          "type": "address"
        },
        {
          "indexed": false,
          "internalType": "uint256",
          "name": "reward",
          "type": "uint256"
        }
      ],
      "name": "RewardPaid",
      "type": "event"
    },
    {
      "inputs": [],
      "name": "BaseERC20Token",
      "outputs": [
        {
          "internalType": "contract BaseERC20",
          "name": "",
          "type": "address"
        }
      ],
      "stateMutability": "view",
      "type": "function"
    },
    {
      "inputs": [],
      "name": "getReward",
      "outputs": [
        {
          "internalType": "bool",
          "name": "",
          "type": "bool"
        }
      ],
      "stateMutability": "nonpayable",
      "type": "function"
    },
    {
      "inputs": [
        {
          "internalType": "address",
          "name": "_stakeholder",
          "type": "address"
        }
      ],
      "name": "rewardOf",
      "outputs": [
        {
          "internalType": "uint256",
          "name": "",
          "type": "uint256"
        }
      ],
      "stateMutability": "view",
      "type": "function"
    },
    {
      "inputs": [
        {
          "internalType": "uint256",
          "name": "_amount",
          "type": "uint256"
        }
      ],
      "name": "stake",
      "outputs": [
        {
          "internalType": "bool",
          "name": "",
          "type": "bool"
        }
      ],
      "stateMutability": "nonpayable",
      "type": "function"
    },
    {
      "inputs": [
        {
          "internalType": "address",
          "name": "",
          "type": "address"
        }
      ],
      "name": "stakeLists",
      "outputs": [
        {
          "internalType": "uint256",
          "name": "stakesAmount",
          "type": "uint256"
        },
        {
          "internalType": "uint256",
          "name": "rewardsAmount",
          "type": "uint256"
        },
        {
          "internalType": "uint256",
          "name": "lastUpdateTime",
          "type": "uint256"
        }
      ],
      "stateMutability": "view",
      "type": "function"
    },
    {
      "inputs": [
        {
          "internalType": "address",
          "name": "_stakeholder",
          "type": "address"
        }
      ],
      "name": "stakeOf",
      "outputs": [
        {
          "internalType": "uint256",
          "name": "",
          "type": "uint256"
        }
      ],
      "stateMutability": "view",
      "type": "function"
    },
    {
      "inputs": [
        {
          "internalType": "uint256",
          "name": "_amount",
          "type": "uint256"
        }
      ],
      "name": "unStake",
      "outputs": [
        {
          "internalType": "bool",
          "name": "",
          "type": "bool"
        }
      ],
      "stateMutability": "nonpayable",
      "type": "function"
    },
    {
      "inputs": [
        {
          "internalType": "address",
          "name": "_account",
          "type": "address"
        }
      ],
      "name": "updateReward",
      "outputs": [
        {
          "internalType": "uint256",
          "name": "",
          "type": "uint256"
        }
      ],
      "stateMutability": "view",
      "type": "function"
    }
  ],
  "bytecode": "0x6080604052600180556103206002553480156200001b57600080fd5b50604051620012ad380380620012ad83398181016040528101906200004191906200009f565b806000806101000a81548173ffffffffffffffffffffffffffffffffffffffff021916908373ffffffffffffffffffffffffffffffffffffffff160217905550506200012d565b600081519050620000998162000113565b92915050565b600060208284031215620000b257600080fd5b6000620000c28482850162000088565b91505092915050565b6000620000d882620000f3565b9050919050565b6000620000ec82620000cb565b9050919050565b600073ffffffffffffffffffffffffffffffffffffffff82169050919050565b6200011e81620000df565b81146200012a57600080fd5b50565b611170806200013d6000396000f3fe608060405234801561001057600080fd5b50600436106100885760003560e01c80634e7a1bb81161005b5780634e7a1bb81461013d5780635d3eea911461015b578063632447c91461018b578063a694fc3a146101bb57610088565b8063168f83bb1461008d5780631d62ebd9146100bf5780633d18b912146100ef578063426233601461010d575b600080fd5b6100a760048036038101906100a29190610a94565b6101eb565b6040516100b693929190610d8f565b60405180910390f35b6100d960048036038101906100d49190610a94565b610215565b6040516100e69190610d74565b60405180910390f35b6100f7610266565b6040516101049190610c9e565b60405180910390f35b61012760048036038101906101229190610a94565b610428565b6040516101349190610d74565b60405180910390f35b610145610479565b6040516101529190610cb9565b60405180910390f35b61017560048036038101906101709190610ae6565b61049d565b6040516101829190610c9e565b60405180910390f35b6101a560048036038101906101a09190610a94565b6106a0565b6040516101b29190610d74565b60405180910390f35b6101d560048036038101906101d09190610ae6565b610786565b6040516101e29190610c9e565b60405180910390f35b60036020528060005260406000206000915090508060000154908060010154908060020154905083565b600080600360008473ffffffffffffffffffffffffffffffffffffffff1673ffffffffffffffffffffffffffffffffffffffff16815260200190815260200160002090508060010154915050919050565b600080600360003373ffffffffffffffffffffffffffffffffffffffff1673ffffffffffffffffffffffffffffffffffffffff16815260200190815260200160002090506102b3336106a0565b8160010181905550600081600101541415610303576040517f08c379a00000000000000000000000000000000000000000000000000000000081526004016102fa90610d54565b60405180910390fd5b60008160010154905060008054906101000a900473ffffffffffffffffffffffffffffffffffffffff1673ffffffffffffffffffffffffffffffffffffffff1663a9059cbb3384600101546040518363ffffffff1660e01b815260040161036b929190610c75565b602060405180830381600087803b15801561038557600080fd5b505af1158015610399573d6000803e3d6000fd5b505050506040513d601f19601f820116820180604052508101906103bd9190610abd565b50600082600101819055504282600201819055503373ffffffffffffffffffffffffffffffffffffffff167fe2403640ba68fed3a2f88b7557551d1993f84b99bb10ff833f0cf8db0c5e0486826040516104179190610d74565b60405180910390a260019250505090565b600080600360008473ffffffffffffffffffffffffffffffffffffffff1673ffffffffffffffffffffffffffffffffffffffff16815260200190815260200160002090508060000154915050919050565b60008054906101000a900473ffffffffffffffffffffffffffffffffffffffff1681565b600080600360003373ffffffffffffffffffffffffffffffffffffffff1673ffffffffffffffffffffffffffffffffffffffff1681526020019081526020016000209050600081600001541415610529576040517f08c379a000000000000000000000000000000000000000000000000000000000815260040161052090610d14565b60405180910390fd5b6000831161056c576040517f08c379a000000000000000000000000000000000000000000000000000000000815260040161056390610cd4565b60405180910390fd5b80600001548311156105b3576040517f08c379a00000000000000000000000000000000000000000000000000000000081526004016105aa90610d34565b60405180910390fd5b60008054906101000a900473ffffffffffffffffffffffffffffffffffffffff1673ffffffffffffffffffffffffffffffffffffffff1663a9059cbb33856040518363ffffffff1660e01b815260040161060e929190610c75565b602060405180830381600087803b15801561062857600080fd5b505af115801561063c573d6000803e3d6000fd5b505050506040513d601f19601f820116820180604052508101906106609190610abd565b5061066a336106a0565b8160010181905550828160000160008282546106869190610eb8565b925050819055504281600201819055506001915050919050565b600080600360008473ffffffffffffffffffffffffffffffffffffffff1673ffffffffffffffffffffffffffffffffffffffff16815260200190815260200160002090506000816000015414156106fe578060010154915050610781565b61077d61076a61271061075c60025461074e60015461074088600001546107328a60020154426109e890919063ffffffff16565b6109fe90919063ffffffff16565b6109fe90919063ffffffff16565b610a1490919063ffffffff16565b610a1490919063ffffffff16565b8260010154610a2a90919063ffffffff16565b9150505b919050565b60008160008054906101000a900473ffffffffffffffffffffffffffffffffffffffff1673ffffffffffffffffffffffffffffffffffffffff166370a08231336040518263ffffffff1660e01b81526004016107e29190610c23565b60206040518083038186803b1580156107fa57600080fd5b505afa15801561080e573d6000803e3d6000fd5b505050506040513d601f19601f820116820180604052508101906108329190610b0f565b1015610873576040517f08c379a000000000000000000000000000000000000000000000000000000000815260040161086a90610cf4565b60405180910390fd5b600082116108b6576040517f08c379a00000000000000000000000000000000000000000000000000000000081526004016108ad90610cd4565b60405180910390fd5b60008054906101000a900473ffffffffffffffffffffffffffffffffffffffff1673ffffffffffffffffffffffffffffffffffffffff166323b872dd3330856040518463ffffffff1660e01b815260040161091393929190610c3e565b602060405180830381600087803b15801561092d57600080fd5b505af1158015610941573d6000803e3d6000fd5b505050506040513d601f19601f820116820180604052508101906109659190610abd565b506000600360003373ffffffffffffffffffffffffffffffffffffffff1673ffffffffffffffffffffffffffffffffffffffff16815260200190815260200160002090506109b2336106a0565b8160010181905550828160000160008282546109ce9190610dd7565b925050819055504281600201819055506001915050919050565b600081836109f69190610eb8565b905092915050565b60008183610a0c9190610e5e565b905092915050565b60008183610a229190610e2d565b905092915050565b60008183610a389190610dd7565b905092915050565b600081359050610a4f816110f5565b92915050565b600081519050610a648161110c565b92915050565b600081359050610a7981611123565b92915050565b600081519050610a8e81611123565b92915050565b600060208284031215610aa657600080fd5b6000610ab484828501610a40565b91505092915050565b600060208284031215610acf57600080fd5b6000610add84828501610a55565b91505092915050565b600060208284031215610af857600080fd5b6000610b0684828501610a6a565b91505092915050565b600060208284031215610b2157600080fd5b6000610b2f84828501610a7f565b91505092915050565b610b4181610eec565b82525050565b610b5081610efe565b82525050565b610b5f81610f34565b82525050565b6000610b72603483610dc6565b9150610b7d82610fb6565b604082019050919050565b6000610b95602283610dc6565b9150610ba082611005565b604082019050919050565b6000610bb8600883610dc6565b9150610bc382611054565b602082019050919050565b6000610bdb603883610dc6565b9150610be68261107d565b604082019050919050565b6000610bfe600a83610dc6565b9150610c09826110cc565b602082019050919050565b610c1d81610f2a565b82525050565b6000602082019050610c386000830184610b38565b92915050565b6000606082019050610c536000830186610b38565b610c606020830185610b38565b610c6d6040830184610c14565b949350505050565b6000604082019050610c8a6000830185610b38565b610c976020830184610c14565b9392505050565b6000602082019050610cb36000830184610b47565b92915050565b6000602082019050610cce6000830184610b56565b92915050565b60006020820190508181036000830152610ced81610b65565b9050919050565b60006020820190508181036000830152610d0d81610b88565b9050919050565b60006020820190508181036000830152610d2d81610bab565b9050919050565b60006020820190508181036000830152610d4d81610bce565b9050919050565b60006020820190508181036000830152610d6d81610bf1565b9050919050565b6000602082019050610d896000830184610c14565b92915050565b6000606082019050610da46000830186610c14565b610db16020830185610c14565b610dbe6040830184610c14565b949350505050565b600082825260208201905092915050565b6000610de282610f2a565b9150610ded83610f2a565b9250827fffffffffffffffffffffffffffffffffffffffffffffffffffffffffffffffff03821115610e2257610e21610f58565b5b828201905092915050565b6000610e3882610f2a565b9150610e4383610f2a565b925082610e5357610e52610f87565b5b828204905092915050565b6000610e6982610f2a565b9150610e7483610f2a565b9250817fffffffffffffffffffffffffffffffffffffffffffffffffffffffffffffffff0483118215151615610ead57610eac610f58565b5b828202905092915050565b6000610ec382610f2a565b9150610ece83610f2a565b925082821015610ee157610ee0610f58565b5b828203905092915050565b6000610ef782610f0a565b9050919050565b60008115159050919050565b600073ffffffffffffffffffffffffffffffffffffffff82169050919050565b6000819050919050565b6000610f3f82610f46565b9050919050565b6000610f5182610f0a565b9050919050565b7f4e487b7100000000000000000000000000000000000000000000000000000000600052601160045260246000fd5b7f4e487b7100000000000000000000000000000000000000000000000000000000600052601260045260246000fd5b7f54686520616d6f756e7420746f206265207472616e736665727265642073686f60008201527f756c64206265206c6172676572207468616e2030000000000000000000000000602082015250565b7f506c65617365206465706f73697465206d6f726520696e20796f75722063617260008201527f6421000000000000000000000000000000000000000000000000000000000000602082015250565b7f4e6f207374616b65000000000000000000000000000000000000000000000000600082015250565b7f54686520616d6f756e7420746f206265207472616e736665727265642073686f60008201527f756c64206265206c657373207468616e204465706f7369740000000000000000602082015250565b7f4e6f207265776172647300000000000000000000000000000000000000000000600082015250565b6110fe81610eec565b811461110957600080fd5b50565b61111581610efe565b811461112057600080fd5b50565b61112c81610f2a565b811461113757600080fd5b5056fea2646970667358221220dc4c6c3f79bb75d712cbbcf589f7feb4995c2706c641d314a9c40c5130278a2c64736f6c63430008040033",
  "linkReferences": {},
  "deployedLinkReferences": {}
}