{
  "_format": "hh-sol-artifact-1",
  "contractName": "TokenVesting",
  "sourceName": "contracts/TokenVesting.sol",
  "abi": [
    {
      "inputs": [
        {
          "internalType": "contract BaseERC20",
          "name": "baseTokenAddr_",
          "type": "address"
        },
        {
          "internalType": "address",
          "name": "beneficiary_",
          "type": "address"
        },
        {
          "internalType": "uint256",
          "name": "start_",
          "type": "uint256"
        },
        {
          "internalType": "uint256",
          "name": "cliffDuration_",
          "type": "uint256"
        },
        {
          "internalType": "uint256",
          "name": "duration_",
          "type": "uint256"
        },
        {
          "internalType": "bool",
          "name": "revocable_",
          "type": "bool"
        }
      ],
      "stateMutability": "nonpayable",
      "type": "constructor"
    },
    {
      "anonymous": false,
      "inputs": [
        {
          "indexed": true,
          "internalType": "address",
          "name": "previousOwner",
          "type": "address"
        },
        {
          "indexed": true,
          "internalType": "address",
          "name": "newOwner",
          "type": "address"
        }
      ],
      "name": "OwnershipTransferred",
      "type": "event"
    },
    {
      "anonymous": false,
      "inputs": [
        {
          "indexed": false,
          "internalType": "address",
          "name": "tokenAddr",
          "type": "address"
        }
      ],
      "name": "TokenVestingRevoked",
      "type": "event"
    },
    {
      "anonymous": false,
      "inputs": [
        {
          "indexed": false,
          "internalType": "address",
          "name": "tokenAddr",
          "type": "address"
        },
        {
          "indexed": false,
          "internalType": "uint256",
          "name": "amount",
          "type": "uint256"
        }
      ],
      "name": "TokensReleased",
      "type": "event"
    },
    {
      "inputs": [],
      "name": "BaseERC20Token",
      "outputs": [
        {
          "internalType": "contract BaseERC20",
          "name": "",
          "type": "address"
        }
      ],
      "stateMutability": "view",
      "type": "function"
    },
    {
      "inputs": [],
      "name": "balanceOf",
      "outputs": [
        {
          "internalType": "uint256",
          "name": "",
          "type": "uint256"
        }
      ],
      "stateMutability": "view",
      "type": "function"
    },
    {
      "inputs": [],
      "name": "beneficiary",
      "outputs": [
        {
          "internalType": "address",
          "name": "",
          "type": "address"
        }
      ],
      "stateMutability": "view",
      "type": "function"
    },
    {
      "inputs": [],
      "name": "cliff",
      "outputs": [
        {
          "internalType": "uint256",
          "name": "",
          "type": "uint256"
        }
      ],
      "stateMutability": "view",
      "type": "function"
    },
    {
      "inputs": [],
      "name": "duration",
      "outputs": [
        {
          "internalType": "uint256",
          "name": "",
          "type": "uint256"
        }
      ],
      "stateMutability": "view",
      "type": "function"
    },
    {
      "inputs": [],
      "name": "nowTime",
      "outputs": [
        {
          "internalType": "uint256",
          "name": "",
          "type": "uint256"
        }
      ],
      "stateMutability": "view",
      "type": "function"
    },
    {
      "inputs": [],
      "name": "owner",
      "outputs": [
        {
          "internalType": "address",
          "name": "",
          "type": "address"
        }
      ],
      "stateMutability": "view",
      "type": "function"
    },
    {
      "inputs": [],
      "name": "release",
      "outputs": [
        {
          "internalType": "bool",
          "name": "",
          "type": "bool"
        }
      ],
      "stateMutability": "nonpayable",
      "type": "function"
    },
    {
      "inputs": [
        {
          "internalType": "address",
          "name": "tokenAddr",
          "type": "address"
        }
      ],
      "name": "released",
      "outputs": [
        {
          "internalType": "uint256",
          "name": "",
          "type": "uint256"
        }
      ],
      "stateMutability": "view",
      "type": "function"
    },
    {
      "inputs": [],
      "name": "renounceOwnership",
      "outputs": [],
      "stateMutability": "nonpayable",
      "type": "function"
    },
    {
      "inputs": [],
      "name": "revocable",
      "outputs": [
        {
          "internalType": "bool",
          "name": "",
          "type": "bool"
        }
      ],
      "stateMutability": "view",
      "type": "function"
    },
    {
      "inputs": [],
      "name": "revoke",
      "outputs": [
        {
          "internalType": "bool",
          "name": "",
          "type": "bool"
        }
      ],
      "stateMutability": "nonpayable",
      "type": "function"
    },
    {
      "inputs": [
        {
          "internalType": "address",
          "name": "tokenAddr",
          "type": "address"
        }
      ],
      "name": "revoked",
      "outputs": [
        {
          "internalType": "bool",
          "name": "",
          "type": "bool"
        }
      ],
      "stateMutability": "view",
      "type": "function"
    },
    {
      "inputs": [
        {
          "internalType": "uint256",
          "name": "_amount",
          "type": "uint256"
        }
      ],
      "name": "setTotaltokens",
      "outputs": [],
      "stateMutability": "nonpayable",
      "type": "function"
    },
    {
      "inputs": [],
      "name": "start",
      "outputs": [
        {
          "internalType": "uint256",
          "name": "",
          "type": "uint256"
        }
      ],
      "stateMutability": "view",
      "type": "function"
    },
    {
      "inputs": [],
      "name": "totalBalance",
      "outputs": [
        {
          "internalType": "uint256",
          "name": "",
          "type": "uint256"
        }
      ],
      "stateMutability": "view",
      "type": "function"
    },
    {
      "inputs": [
        {
          "internalType": "address",
          "name": "newOwner",
          "type": "address"
        }
      ],
      "name": "transferOwnership",
      "outputs": [],
      "stateMutability": "nonpayable",
      "type": "function"
    }
  ],
  "bytecode": "0x60806040523480156200001157600080fd5b5060405162001f1f38038062001f1f8339818101604052810190620000379190620003ca565b620000576200004b6200028a60201b60201c565b6200029260201b60201c565b600073ffffffffffffffffffffffffffffffffffffffff168573ffffffffffffffffffffffffffffffffffffffff161415620000ca576040517f08c379a0000000000000000000000000000000000000000000000000000000008152600401620000c1906200051e565b60405180910390fd5b8183111562000110576040517f08c379a0000000000000000000000000000000000000000000000000000000008152600401620001079062000540565b60405180910390fd5b6000821162000156576040517f08c379a00000000000000000000000000000000000000000000000000000000081526004016200014d9062000562565b60405180910390fd5b426200017183866200035660201b62000d6d1790919060201c565b11620001b4576040517f08c379a0000000000000000000000000000000000000000000000000000000008152600401620001ab90620004fc565b60405180910390fd5b85600160006101000a81548173ffffffffffffffffffffffffffffffffffffffff021916908373ffffffffffffffffffffffffffffffffffffffff16021790555084600260006101000a81548173ffffffffffffffffffffffffffffffffffffffff021916908373ffffffffffffffffffffffffffffffffffffffff160217905550836004819055506200025783856200035660201b62000d6d1790919060201c565b6003819055508160058190555080600760006101000a81548160ff021916908315150217905550505050505050620007fd565b600033905090565b60008060009054906101000a900473ffffffffffffffffffffffffffffffffffffffff169050816000806101000a81548173ffffffffffffffffffffffffffffffffffffffff021916908373ffffffffffffffffffffffffffffffffffffffff1602179055508173ffffffffffffffffffffffffffffffffffffffff168173ffffffffffffffffffffffffffffffffffffffff167f8be0079c531659141344cd1fd0a4f28419497f9722a3daafe3b4186f6b6457e060405160405180910390a35050565b6000818362000366919062000595565b905092915050565b6000815190506200037f8162000795565b92915050565b6000815190506200039681620007af565b92915050565b600081519050620003ad81620007c9565b92915050565b600081519050620003c481620007e3565b92915050565b60008060008060008060c08789031215620003e457600080fd5b6000620003f489828a016200039c565b96505060206200040789828a016200036e565b95505060406200041a89828a01620003b3565b94505060606200042d89828a01620003b3565b93505060806200044089828a01620003b3565b92505060a06200045389828a0162000385565b9150509295509295509295565b60006200046f602f8362000584565b91506200047c826200067f565b604082019050919050565b600062000496602d8362000584565b9150620004a382620006ce565b604082019050919050565b6000620004bd602b8362000584565b9150620004ca826200071d565b604082019050919050565b6000620004e4601b8362000584565b9150620004f1826200076c565b602082019050919050565b60006020820190508181036000830152620005178162000460565b9050919050565b60006020820190508181036000830152620005398162000487565b9050919050565b600060208201905081810360008301526200055b81620004ae565b9050919050565b600060208201905081810360008301526200057d81620004d5565b9050919050565b600082825260208201905092915050565b6000620005a28262000646565b9150620005af8362000646565b9250827fffffffffffffffffffffffffffffffffffffffffffffffffffffffffffffffff03821115620005e757620005e662000650565b5b828201905092915050565b6000620005ff8262000626565b9050919050565b60008115159050919050565b60006200061f82620005f2565b9050919050565b600073ffffffffffffffffffffffffffffffffffffffff82169050919050565b6000819050919050565b7f4e487b7100000000000000000000000000000000000000000000000000000000600052601160045260246000fd5b7f546f6b656e56657374696e673a2066696e616c2074696d65206973206265666f60008201527f72652063757272656e742074696d650000000000000000000000000000000000602082015250565b7f546f6b656e56657374696e673a2062656e65666963696172792069732074686560008201527f207a65726f206164647265737300000000000000000000000000000000000000602082015250565b7f546f6b656e56657374696e673a20636c696666206973206c6f6e67657220746860008201527f616e206475726174696f6e000000000000000000000000000000000000000000602082015250565b7f546f6b656e56657374696e673a206475726174696f6e20697320300000000000600082015250565b620007a081620005f2565b8114620007ac57600080fd5b50565b620007ba8162000606565b8114620007c657600080fd5b50565b620007d48162000612565b8114620007e057600080fd5b50565b620007ee8162000646565b8114620007fa57600080fd5b50565b611712806200080d6000396000f3fe608060405234801561001057600080fd5b506004361061010b5760003560e01c806386d1a69f116100a2578063ad7a672f11610071578063ad7a672f14610274578063b6549f7514610292578063be9a6555146102b0578063f2fde38b146102ce578063fa01dc06146102ea5761010b565b806386d1a69f146101ea578063872a7810146102085780638da5cb5b146102265780639852595c146102445761010b565b806338af3eed116100de57806338af3eed146101865780634e7a1bb8146101a4578063715018a6146101c2578063722713f7146101cc5761010b565b80630fb5a6b41461011057806313d033c01461012e5780632f2d35e31461014c578063335f1b3714610168575b600080fd5b61011861031a565b604051610125919061134a565b60405180910390f35b610136610324565b604051610143919061134a565b60405180910390f35b610166600480360381019061016191906110b0565b61032e565b005b610170610338565b60405161017d919061134a565b60405180910390f35b61018e610340565b60405161019b9190611210565b60405180910390f35b6101ac61036a565b6040516101b9919061126f565b60405180910390f35b6101ca610390565b005b6101d4610418565b6040516101e1919061134a565b60405180910390f35b6101f26104ca565b6040516101ff9190611254565b60405180910390f35b6102106107a5565b60405161021d9190611254565b60405180910390f35b61022e6107bc565b60405161023b9190611210565b60405180910390f35b61025e6004803603810190610259919061105e565b6107e5565b60405161026b919061134a565b60405180910390f35b61027c61082e565b604051610289919061134a565b60405180910390f35b61029a610834565b6040516102a79190611254565b60405180910390f35b6102b8610c15565b6040516102c5919061134a565b60405180910390f35b6102e860048036038101906102e3919061105e565b610c1f565b005b61030460048036038101906102ff919061105e565b610d17565b6040516103119190611254565b60405180910390f35b6000600554905090565b6000600354905090565b8060068190555050565b600042905090565b6000600260009054906101000a900473ffffffffffffffffffffffffffffffffffffffff16905090565b600160009054906101000a900473ffffffffffffffffffffffffffffffffffffffff1681565b610398610d83565b73ffffffffffffffffffffffffffffffffffffffff166103b66107bc565b73ffffffffffffffffffffffffffffffffffffffff161461040c576040517f08c379a0000000000000000000000000000000000000000000000000000000008152600401610403906112ea565b60405180910390fd5b6104166000610d8b565b565b6000600160009054906101000a900473ffffffffffffffffffffffffffffffffffffffff1673ffffffffffffffffffffffffffffffffffffffff166370a08231306040518263ffffffff1660e01b81526004016104759190611210565b60206040518083038186803b15801561048d57600080fd5b505afa1580156104a1573d6000803e3d6000fd5b505050506040513d601f19601f820116820180604052508101906104c591906110d9565b905090565b60006104d4610d83565b73ffffffffffffffffffffffffffffffffffffffff166104f26107bc565b73ffffffffffffffffffffffffffffffffffffffff1614610548576040517f08c379a000000000000000000000000000000000000000000000000000000000815260040161053f906112ea565b60405180910390fd5b6000610552610e4f565b905060008111610597576040517f08c379a000000000000000000000000000000000000000000000000000000000815260040161058e906112ca565b60405180910390fd5b61060b8160086000600260009054906101000a900473ffffffffffffffffffffffffffffffffffffffff1673ffffffffffffffffffffffffffffffffffffffff1673ffffffffffffffffffffffffffffffffffffffff16815260200190815260200160002054610d6d90919063ffffffff16565b60086000600260009054906101000a900473ffffffffffffffffffffffffffffffffffffffff1673ffffffffffffffffffffffffffffffffffffffff1673ffffffffffffffffffffffffffffffffffffffff16815260200190815260200160002081905550600160009054906101000a900473ffffffffffffffffffffffffffffffffffffffff1673ffffffffffffffffffffffffffffffffffffffff1663a9059cbb600260009054906101000a900473ffffffffffffffffffffffffffffffffffffffff16836040518363ffffffff1660e01b81526004016106ef92919061122b565b602060405180830381600087803b15801561070957600080fd5b505af115801561071d573d6000803e3d6000fd5b505050506040513d601f19601f820116820180604052508101906107419190611087565b507fc7798891864187665ac6dd119286e44ec13f014527aeeb2b8eb3fd413df93179600260009054906101000a900473ffffffffffffffffffffffffffffffffffffffff168260405161079592919061122b565b60405180910390a1600191505090565b6000600760009054906101000a900460ff16905090565b60008060009054906101000a900473ffffffffffffffffffffffffffffffffffffffff16905090565b6000600860008373ffffffffffffffffffffffffffffffffffffffff1673ffffffffffffffffffffffffffffffffffffffff168152602001908152602001600020549050919050565b60065481565b600061083e610d83565b73ffffffffffffffffffffffffffffffffffffffff1661085c6107bc565b73ffffffffffffffffffffffffffffffffffffffff16146108b2576040517f08c379a00000000000000000000000000000000000000000000000000000000081526004016108a9906112ea565b60405180910390fd5b600760009054906101000a900460ff16610901576040517f08c379a00000000000000000000000000000000000000000000000000000000081526004016108f89061128a565b60405180910390fd5b60096000600260009054906101000a900473ffffffffffffffffffffffffffffffffffffffff1673ffffffffffffffffffffffffffffffffffffffff1673ffffffffffffffffffffffffffffffffffffffff16815260200190815260200160002060009054906101000a900460ff16156109b0576040517f08c379a00000000000000000000000000000000000000000000000000000000081526004016109a79061132a565b60405180910390fd5b60065460086000600260009054906101000a900473ffffffffffffffffffffffffffffffffffffffff1673ffffffffffffffffffffffffffffffffffffffff1673ffffffffffffffffffffffffffffffffffffffff1681526020019081526020016000205410610a55576040517f08c379a0000000000000000000000000000000000000000000000000000000008152600401610a4c9061130a565b60405180910390fd5b600160096000600260009054906101000a900473ffffffffffffffffffffffffffffffffffffffff1673ffffffffffffffffffffffffffffffffffffffff1673ffffffffffffffffffffffffffffffffffffffff16815260200190815260200160002060006101000a81548160ff0219169083151502179055506000610ad9610e4f565b9050610b4f8160086000600260009054906101000a900473ffffffffffffffffffffffffffffffffffffffff1673ffffffffffffffffffffffffffffffffffffffff1673ffffffffffffffffffffffffffffffffffffffff16815260200190815260200160002054610d6d90919063ffffffff16565b60086000600260009054906101000a900473ffffffffffffffffffffffffffffffffffffffff1673ffffffffffffffffffffffffffffffffffffffff1673ffffffffffffffffffffffffffffffffffffffff168152602001908152602001600020819055507f39983c6d4d174a7aee564f449d4a5c3c7ac9649d72b7793c56901183996f8af6600260009054906101000a900473ffffffffffffffffffffffffffffffffffffffff16604051610c059190611210565b60405180910390a1600191505090565b6000600454905090565b610c27610d83565b73ffffffffffffffffffffffffffffffffffffffff16610c456107bc565b73ffffffffffffffffffffffffffffffffffffffff1614610c9b576040517f08c379a0000000000000000000000000000000000000000000000000000000008152600401610c92906112ea565b60405180910390fd5b600073ffffffffffffffffffffffffffffffffffffffff168173ffffffffffffffffffffffffffffffffffffffff161415610d0b576040517f08c379a0000000000000000000000000000000000000000000000000000000008152600401610d02906112aa565b60405180910390fd5b610d1481610d8b565b50565b6000600960008373ffffffffffffffffffffffffffffffffffffffff1673ffffffffffffffffffffffffffffffffffffffff16815260200190815260200160002060009054906101000a900460ff169050919050565b60008183610d7b9190611376565b905092915050565b600033905090565b60008060009054906101000a900473ffffffffffffffffffffffffffffffffffffffff169050816000806101000a81548173ffffffffffffffffffffffffffffffffffffffff021916908373ffffffffffffffffffffffffffffffffffffffff1602179055508173ffffffffffffffffffffffffffffffffffffffff168173ffffffffffffffffffffffffffffffffffffffff167f8be0079c531659141344cd1fd0a4f28419497f9722a3daafe3b4186f6b6457e060405160405180910390a35050565b6000610ecc60086000600260009054906101000a900473ffffffffffffffffffffffffffffffffffffffff1673ffffffffffffffffffffffffffffffffffffffff1673ffffffffffffffffffffffffffffffffffffffff16815260200190815260200160002054610ebe610ed1565b610fc890919063ffffffff16565b905090565b6000600354421015610ee65760009050610fc5565b610efd600554600454610d6d90919063ffffffff16565b42101580610f76575060096000600260009054906101000a900473ffffffffffffffffffffffffffffffffffffffff1673ffffffffffffffffffffffffffffffffffffffff1673ffffffffffffffffffffffffffffffffffffffff16815260200190815260200160002060009054906101000a900460ff165b15610f85576006549050610fc5565b610fc2600554610fb4610fa360045442610fc890919063ffffffff16565b600654610fde90919063ffffffff16565b610ff490919063ffffffff16565b90505b90565b60008183610fd69190611457565b905092915050565b60008183610fec91906113fd565b905092915050565b6000818361100291906113cc565b905092915050565b60008135905061101981611697565b92915050565b60008151905061102e816116ae565b92915050565b600081359050611043816116c5565b92915050565b600081519050611058816116c5565b92915050565b60006020828403121561107057600080fd5b600061107e8482850161100a565b91505092915050565b60006020828403121561109957600080fd5b60006110a78482850161101f565b91505092915050565b6000602082840312156110c257600080fd5b60006110d084828501611034565b91505092915050565b6000602082840312156110eb57600080fd5b60006110f984828501611049565b91505092915050565b61110b8161148b565b82525050565b61111a8161149d565b82525050565b611129816114d3565b82525050565b600061113c601b83611365565b915061114782611555565b602082019050919050565b600061115f602683611365565b915061116a8261157e565b604082019050919050565b6000611182601f83611365565b915061118d826115cd565b602082019050919050565b60006111a5602083611365565b91506111b0826115f6565b602082019050919050565b60006111c8601f83611365565b91506111d38261161f565b602082019050919050565b60006111eb602383611365565b91506111f682611648565b604082019050919050565b61120a816114c9565b82525050565b60006020820190506112256000830184611102565b92915050565b60006040820190506112406000830185611102565b61124d6020830184611201565b9392505050565b60006020820190506112696000830184611111565b92915050565b60006020820190506112846000830184611120565b92915050565b600060208201905081810360008301526112a38161112f565b9050919050565b600060208201905081810360008301526112c381611152565b9050919050565b600060208201905081810360008301526112e381611175565b9050919050565b6000602082019050818103600083015261130381611198565b9050919050565b60006020820190508181036000830152611323816111bb565b9050919050565b60006020820190508181036000830152611343816111de565b9050919050565b600060208201905061135f6000830184611201565b92915050565b600082825260208201905092915050565b6000611381826114c9565b915061138c836114c9565b9250827fffffffffffffffffffffffffffffffffffffffffffffffffffffffffffffffff038211156113c1576113c06114f7565b5b828201905092915050565b60006113d7826114c9565b91506113e2836114c9565b9250826113f2576113f1611526565b5b828204905092915050565b6000611408826114c9565b9150611413836114c9565b9250817fffffffffffffffffffffffffffffffffffffffffffffffffffffffffffffffff048311821515161561144c5761144b6114f7565b5b828202905092915050565b6000611462826114c9565b915061146d836114c9565b9250828210156114805761147f6114f7565b5b828203905092915050565b6000611496826114a9565b9050919050565b60008115159050919050565b600073ffffffffffffffffffffffffffffffffffffffff82169050919050565b6000819050919050565b60006114de826114e5565b9050919050565b60006114f0826114a9565b9050919050565b7f4e487b7100000000000000000000000000000000000000000000000000000000600052601160045260246000fd5b7f4e487b7100000000000000000000000000000000000000000000000000000000600052601260045260246000fd5b7f546f6b656e56657374696e673a2063616e6e6f74207265766f6b650000000000600082015250565b7f4f776e61626c653a206e6577206f776e657220697320746865207a65726f206160008201527f6464726573730000000000000000000000000000000000000000000000000000602082015250565b7f546f6b656e56657374696e673a206e6f20746f6b656e73206172652064756500600082015250565b7f4f776e61626c653a2063616c6c6572206973206e6f7420746865206f776e6572600082015250565b7f546f6b656e56657374696e673a206e6f20746f6b656e7320746f207665737400600082015250565b7f546f6b656e56657374696e673a20746f6b656e20616c7265616479207265766f60008201527f6b65640000000000000000000000000000000000000000000000000000000000602082015250565b6116a08161148b565b81146116ab57600080fd5b50565b6116b78161149d565b81146116c257600080fd5b50565b6116ce816114c9565b81146116d957600080fd5b5056fea26469706673582212205f59b46e9dcf93f31c93194713ef727383e706921e870b9998b657050fb05c8a64736f6c63430008040033",
  "linkReferences": {},
  "deployedLinkReferences": {}
}