{
  "_format": "hh-sol-artifact-1",
  "contractName": "Presale",
  "sourceName": "contracts/Presale.sol",
  "abi": [
    {
      "inputs": [
        {
          "internalType": "uint256",
          "name": "_rate",
          "type": "uint256"
        },
        {
          "internalType": "address payable",
          "name": "_ownerWallet",
          "type": "address"
        },
        {
          "internalType": "contract BaseERC20",
          "name": "_baseTokenAddr",
          "type": "address"
        }
      ],
      "stateMutability": "nonpayable",
      "type": "constructor"
    },
    {
      "anonymous": false,
      "inputs": [
        {
          "indexed": false,
          "internalType": "contract BaseERC20",
          "name": "token_",
          "type": "address"
        },
        {
          "indexed": false,
          "internalType": "uint256",
          "name": "amount",
          "type": "uint256"
        }
      ],
      "name": "GotTokens",
      "type": "event"
    },
    {
      "inputs": [],
      "name": "BaseERC20Token",
      "outputs": [
        {
          "internalType": "contract BaseERC20",
          "name": "",
          "type": "address"
        }
      ],
      "stateMutability": "view",
      "type": "function"
    },
    {
      "inputs": [
        {
          "internalType": "address",
          "name": "_beneficiary",
          "type": "address"
        }
      ],
      "name": "buyTokens",
      "outputs": [],
      "stateMutability": "payable",
      "type": "function"
    },
    {
      "inputs": [
        {
          "internalType": "uint256",
          "name": "amount",
          "type": "uint256"
        }
      ],
      "name": "getPrice",
      "outputs": [
        {
          "internalType": "uint256",
          "name": "",
          "type": "uint256"
        }
      ],
      "stateMutability": "view",
      "type": "function"
    },
    {
      "inputs": [],
      "name": "getSentEther",
      "outputs": [
        {
          "internalType": "uint256",
          "name": "",
          "type": "uint256"
        }
      ],
      "stateMutability": "view",
      "type": "function"
    },
    {
      "inputs": [],
      "name": "getTotalEarned",
      "outputs": [
        {
          "internalType": "uint256",
          "name": "",
          "type": "uint256"
        }
      ],
      "stateMutability": "view",
      "type": "function"
    },
    {
      "inputs": [],
      "name": "rate",
      "outputs": [
        {
          "internalType": "uint256",
          "name": "",
          "type": "uint256"
        }
      ],
      "stateMutability": "view",
      "type": "function"
    },
    {
      "inputs": [],
      "name": "sentEther",
      "outputs": [
        {
          "internalType": "uint256",
          "name": "",
          "type": "uint256"
        }
      ],
      "stateMutability": "view",
      "type": "function"
    },
    {
      "inputs": [],
      "name": "totalEarned",
      "outputs": [
        {
          "internalType": "uint256",
          "name": "",
          "type": "uint256"
        }
      ],
      "stateMutability": "view",
      "type": "function"
    }
  ],
  "bytecode": "0x60806040523480156200001157600080fd5b5060405162000cda38038062000cda833981810160405281019062000037919062000239565b600083116200007d576040517f08c379a0000000000000000000000000000000000000000000000000000000008152600401620000749062000326565b60405180910390fd5b600073ffffffffffffffffffffffffffffffffffffffff168273ffffffffffffffffffffffffffffffffffffffff161415620000f0576040517f08c379a0000000000000000000000000000000000000000000000000000000008152600401620000e79062000304565b60405180910390fd5b600073ffffffffffffffffffffffffffffffffffffffff168173ffffffffffffffffffffffffffffffffffffffff16141562000163576040517f08c379a00000000000000000000000000000000000000000000000000000000081526004016200015a9062000348565b60405180910390fd5b8260028190555081600160006101000a81548173ffffffffffffffffffffffffffffffffffffffff021916908373ffffffffffffffffffffffffffffffffffffffff160217905550806000806101000a81548173ffffffffffffffffffffffffffffffffffffffff021916908373ffffffffffffffffffffffffffffffffffffffff160217905550505050620004aa565b60008151905062000205816200045c565b92915050565b6000815190506200021c8162000476565b92915050565b600081519050620002338162000490565b92915050565b6000806000606084860312156200024f57600080fd5b60006200025f8682870162000222565b93505060206200027286828701620001f4565b925050604062000285868287016200020b565b9150509250925092565b60006200029e6013836200036a565b9150620002ab82620003e1565b602082019050919050565b6000620002c5600a836200036a565b9150620002d2826200040a565b602082019050919050565b6000620002ec6012836200036a565b9150620002f98262000433565b602082019050919050565b600060208201905081810360008301526200031f816200028f565b9050919050565b600060208201905081810360008301526200034181620002b6565b9050919050565b600060208201905081810360008301526200036381620002dd565b9050919050565b600082825260208201905092915050565b60006200038882620003b7565b9050919050565b60006200039c82620003b7565b9050919050565b6000620003b0826200037b565b9050919050565b600073ffffffffffffffffffffffffffffffffffffffff82169050919050565b6000819050919050565b7f5a65726f2077616c6c6574206164647265737300000000000000000000000000600082015250565b7f5a65726f20726174652100000000000000000000000000000000000000000000600082015250565b7f5a65726f20746f6b656e20616464726573730000000000000000000000000000600082015250565b62000467816200038f565b81146200047357600080fd5b50565b6200048181620003a3565b81146200048d57600080fd5b50565b6200049b81620003d7565b8114620004a757600080fd5b50565b61082080620004ba6000396000f3fe60806040526004361061007b5760003560e01c8063ca4407721161004e578063ca4407721461012c578063dbd1c08f14610157578063e757223014610182578063ec8ac4d8146101bf5761007b565b80632c4e722e1461008057806336e1f1fc146100ab5780634e7a1bb8146100d65780636dfa8d9914610101575b600080fd5b34801561008c57600080fd5b506100956101db565b6040516100a291906105df565b60405180910390f35b3480156100b757600080fd5b506100c06101e1565b6040516100cd91906105df565b60405180910390f35b3480156100e257600080fd5b506100eb6101e7565b6040516100f8919061059b565b60405180910390f35b34801561010d57600080fd5b5061011661020b565b60405161012391906105df565b60405180910390f35b34801561013857600080fd5b50610141610211565b60405161014e91906105df565b60405180910390f35b34801561016357600080fd5b5061016c61021b565b60405161017991906105df565b60405180910390f35b34801561018e57600080fd5b506101a960048036038101906101a4919061051c565b61022a565b6040516101b691906105df565b60405180910390f35b6101d960048036038101906101d491906104ca565b610248565b005b60025481565b60045481565b60008054906101000a900473ffffffffffffffffffffffffffffffffffffffff1681565b60035481565b6000600454905090565b600061022561043f565b905090565b60006102416002548361044990919063ffffffff16565b9050919050565b600073ffffffffffffffffffffffffffffffffffffffff168173ffffffffffffffffffffffffffffffffffffffff16141561028257600080fd5b600034141561029057600080fd5b60006102a76002543461045f90919063ffffffff16565b90506102be3460035461047590919063ffffffff16565b60038190555060008054906101000a900473ffffffffffffffffffffffffffffffffffffffff1673ffffffffffffffffffffffffffffffffffffffff1663a9059cbb83836040518363ffffffff1660e01b815260040161031f929190610572565b602060405180830381600087803b15801561033957600080fd5b505af115801561034d573d6000803e3d6000fd5b505050506040513d601f19601f8201168201806040525081019061037191906104f3565b50600160009054906101000a900473ffffffffffffffffffffffffffffffffffffffff1673ffffffffffffffffffffffffffffffffffffffff166108fc349081150290604051600060405180830381858888f193505050501580156103da573d6000803e3d6000fd5b50346004819055507f0debb524b8a2c0d207653bb9826d5e0023e165ce06b486bbdcb932a6b0c90a0e60008054906101000a900473ffffffffffffffffffffffffffffffffffffffff16826040516104339291906105b6565b60405180910390a15050565b6000600354905090565b600081836104579190610650565b905092915050565b6000818361046d9190610681565b905092915050565b6000818361048391906105fa565b905092915050565b60008135905061049a816107a5565b92915050565b6000815190506104af816107bc565b92915050565b6000813590506104c4816107d3565b92915050565b6000602082840312156104dc57600080fd5b60006104ea8482850161048b565b91505092915050565b60006020828403121561050557600080fd5b6000610513848285016104a0565b91505092915050565b60006020828403121561052e57600080fd5b600061053c848285016104b5565b91505092915050565b61054e816106db565b82525050565b61055d81610723565b82525050565b61056c81610719565b82525050565b60006040820190506105876000830185610545565b6105946020830184610563565b9392505050565b60006020820190506105b06000830184610554565b92915050565b60006040820190506105cb6000830185610554565b6105d86020830184610563565b9392505050565b60006020820190506105f46000830184610563565b92915050565b600061060582610719565b915061061083610719565b9250827fffffffffffffffffffffffffffffffffffffffffffffffffffffffffffffffff0382111561064557610644610747565b5b828201905092915050565b600061065b82610719565b915061066683610719565b92508261067657610675610776565b5b828204905092915050565b600061068c82610719565b915061069783610719565b9250817fffffffffffffffffffffffffffffffffffffffffffffffffffffffffffffffff04831182151516156106d0576106cf610747565b5b828202905092915050565b60006106e6826106f9565b9050919050565b60008115159050919050565b600073ffffffffffffffffffffffffffffffffffffffff82169050919050565b6000819050919050565b600061072e82610735565b9050919050565b6000610740826106f9565b9050919050565b7f4e487b7100000000000000000000000000000000000000000000000000000000600052601160045260246000fd5b7f4e487b7100000000000000000000000000000000000000000000000000000000600052601260045260246000fd5b6107ae816106db565b81146107b957600080fd5b50565b6107c5816106ed565b81146107d057600080fd5b50565b6107dc81610719565b81146107e757600080fd5b5056fea2646970667358221220ece5c7f8a8fc11b79b1d11d40615d00f232bdb07e0c8d860bab306f98aa45b9564736f6c63430008040033",
  "linkReferences": {},
  "deployedLinkReferences": {}
}